{
  "_format": "hh-sol-artifact-1",
  "contractName": "TestSwap",
  "sourceName": "contracts/TestSwap.sol",
  "abi": [
    {
      "inputs": [
        {
          "internalType": "contract ISwapRouter",
          "name": "_swapRouter",
          "type": "address"
        }
      ],
      "stateMutability": "nonpayable",
      "type": "constructor"
    },
    {
      "inputs": [],
      "name": "DAI",
      "outputs": [
        {
          "internalType": "address",
          "name": "",
          "type": "address"
        }
      ],
      "stateMutability": "view",
      "type": "function"
    },
    {
      "inputs": [],
      "name": "WETH9",
      "outputs": [
        {
          "internalType": "address",
          "name": "",
          "type": "address"
        }
      ],
      "stateMutability": "view",
      "type": "function"
    },
    {
      "inputs": [
        {
          "internalType": "uint256",
          "name": "amount",
          "type": "uint256"
        }
      ],
      "name": "approveContract",
      "outputs": [
        {
          "internalType": "bool",
          "name": "",
          "type": "bool"
        }
      ],
      "stateMutability": "payable",
      "type": "function"
    },
    {
      "inputs": [],
      "name": "checkAllowanceRemaining",
      "outputs": [
        {
          "internalType": "uint256",
          "name": "",
          "type": "uint256"
        }
      ],
      "stateMutability": "view",
      "type": "function"
    },
    {
      "inputs": [
        {
          "internalType": "uint256",
          "name": "daiAmount",
          "type": "uint256"
        }
      ],
      "name": "convertEthToExactDai",
      "outputs": [],
      "stateMutability": "payable",
      "type": "function"
    },
    {
      "inputs": [
        {
          "internalType": "uint256",
          "name": "amount",
          "type": "uint256"
        }
      ],
      "name": "depositEth",
      "outputs": [],
      "stateMutability": "nonpayable",
      "type": "function"
    },
    {
      "inputs": [],
      "name": "feeTier",
      "outputs": [
        {
          "internalType": "uint24",
          "name": "",
          "type": "uint24"
        }
      ],
      "stateMutability": "view",
      "type": "function"
    },
    {
      "inputs": [],
      "name": "owner",
      "outputs": [
        {
          "internalType": "address",
          "name": "",
          "type": "address"
        }
      ],
      "stateMutability": "view",
      "type": "function"
    },
    {
      "inputs": [],
      "name": "swapRouter",
      "outputs": [
        {
          "internalType": "contract ISwapRouter",
          "name": "",
          "type": "address"
        }
      ],
      "stateMutability": "view",
      "type": "function"
    },
    {
      "inputs": [
        {
          "internalType": "uint256",
          "name": "amountIn",
          "type": "uint256"
        }
      ],
      "name": "swapWETHForDAI",
      "outputs": [
        {
          "internalType": "uint256",
          "name": "amountOut",
          "type": "uint256"
        }
      ],
      "stateMutability": "nonpayable",
      "type": "function"
    }
  ],
  "bytecode": "0x60c06040523480156200001157600080fd5b50604051620013a1380380620013a18339818101604052810190620000379190620000c3565b8073ffffffffffffffffffffffffffffffffffffffff1660808173ffffffffffffffffffffffffffffffffffffffff1660601b815250503373ffffffffffffffffffffffffffffffffffffffff1660a08173ffffffffffffffffffffffffffffffffffffffff1660601b815250505062000151565b600081519050620000bd8162000137565b92915050565b600060208284031215620000d657600080fd5b6000620000e684828501620000ac565b91505092915050565b6000620000fc8262000117565b9050919050565b60006200011082620000ef565b9050919050565b600073ffffffffffffffffffffffffffffffffffffffff82169050919050565b620001428162000103565b81146200014e57600080fd5b50565b60805160601c60a05160601c6112176200018a600039806108365250806103e052806104ce528061077d528061085a52506112176000f3fe6080604052600436106100915760003560e01c806372f5d98a1161005957806372f5d98a146101825780637ed3717f146101ad5780638da5cb5b146101c9578063c31c9c07146101f4578063e0bab4c41461021f57610091565b806306c0a2a6146100965780630f4d14e9146100c15780632ed5016f146100ea5780634aa4a4fc1461012757806362c35c0114610152575b600080fd5b3480156100a257600080fd5b506100ab61024a565b6040516100b891906110d6565b60405180910390f35b3480156100cd57600080fd5b506100e860048036038101906100e39190610d1d565b6102f0565b005b3480156100f657600080fd5b50610111600480360381019061010c9190610d1d565b6103a4565b60405161011e91906110d6565b60405180910390f35b34801561013357600080fd5b5061013c61057f565b6040516101499190610f89565b60405180910390f35b61016c60048036038101906101679190610d1d565b610597565b604051610179919061102d565b60405180910390f35b34801561018e57600080fd5b50610197610646565b6040516101a491906110bb565b60405180910390f35b6101c760048036038101906101c29190610d1d565b61064c565b005b3480156101d557600080fd5b506101de610834565b6040516101eb9190610f89565b60405180910390f35b34801561020057600080fd5b50610209610858565b6040516102169190611048565b60405180910390f35b34801561022b57600080fd5b5061023461087c565b6040516102419190610f89565b60405180910390f35b600073c02aaa39b223fe8d0a0e5c4f27ead9083c756cc273ffffffffffffffffffffffffffffffffffffffff1663dd62ed3e33306040518363ffffffff1660e01b815260040161029b929190610fa4565b60206040518083038186803b1580156102b357600080fd5b505afa1580156102c7573d6000803e3d6000fd5b505050506040513d601f19601f820116820180604052508101906102eb9190610d46565b905090565b600081116102fd57600080fd5b73c02aaa39b223fe8d0a0e5c4f27ead9083c756cc273ffffffffffffffffffffffffffffffffffffffff166323b872dd3330846040518463ffffffff1660e01b815260040161034e93929190610fcd565b602060405180830381600087803b15801561036857600080fd5b505af115801561037c573d6000803e3d6000fd5b505050506040513d601f19601f820116820180604052508101906103a09190610cf4565b5050565b60006103c673c02aaa39b223fe8d0a0e5c4f27ead9083c756cc2333085610894565b61040573c02aaa39b223fe8d0a0e5c4f27ead9083c756cc27f000000000000000000000000000000000000000000000000000000000000000084610ab4565b600060405180610100016040528073c02aaa39b223fe8d0a0e5c4f27ead9083c756cc273ffffffffffffffffffffffffffffffffffffffff168152602001736b175474e89094c44da98b954eedeac495271d0f73ffffffffffffffffffffffffffffffffffffffff168152602001610bb862ffffff1681526020013373ffffffffffffffffffffffffffffffffffffffff16815260200142815260200184815260200160008152602001600073ffffffffffffffffffffffffffffffffffffffff1681525090507f000000000000000000000000000000000000000000000000000000000000000073ffffffffffffffffffffffffffffffffffffffff1663414bf389826040518263ffffffff1660e01b81526004016105259190611083565b602060405180830381600087803b15801561053f57600080fd5b505af1158015610553573d6000803e3d6000fd5b505050506040513d601f19601f820116820180604052508101906105779190610d46565b915050919050565b73c02aaa39b223fe8d0a0e5c4f27ead9083c756cc281565b60008073c02aaa39b223fe8d0a0e5c4f27ead9083c756cc273ffffffffffffffffffffffffffffffffffffffff1663095ea7b333856040518363ffffffff1660e01b81526004016105e9929190611004565b602060405180830381600087803b15801561060357600080fd5b505af1158015610617573d6000803e3d6000fd5b505050506040513d601f19601f8201168201806040525081019061063b9190610cf4565b905080915050919050565b610bb881565b6000341161068f576040517f08c379a000000000000000000000000000000000000000000000000000000000815260040161068690611063565b60405180910390fd5b6000600f42019050600073c02aaa39b223fe8d0a0e5c4f27ead9083c756cc290506000736b175474e89094c44da98b954eedeac495271d0f90506000610bb890506000339050600086905060003490506000806040518061010001604052808973ffffffffffffffffffffffffffffffffffffffff1681526020018873ffffffffffffffffffffffffffffffffffffffff1681526020018762ffffff1681526020018673ffffffffffffffffffffffffffffffffffffffff1681526020018a81526020018581526020018481526020018373ffffffffffffffffffffffffffffffffffffffff1681525090507f000000000000000000000000000000000000000000000000000000000000000073ffffffffffffffffffffffffffffffffffffffff1663db3e219834836040518363ffffffff1660e01b81526004016107d5919061109f565b6020604051808303818588803b1580156107ee57600080fd5b505af1158015610802573d6000803e3d6000fd5b50505050506040513d601f19601f820116820180604052508101906108279190610d46565b5050505050505050505050565b7f000000000000000000000000000000000000000000000000000000000000000081565b7f000000000000000000000000000000000000000000000000000000000000000081565b736b175474e89094c44da98b954eedeac495271d0f81565b6000808573ffffffffffffffffffffffffffffffffffffffff166323b872dd60e01b868686604051602401808473ffffffffffffffffffffffffffffffffffffffff1681526020018373ffffffffffffffffffffffffffffffffffffffff1681526020018281526020019350505050604051602081830303815290604052907bffffffffffffffffffffffffffffffffffffffffffffffffffffffff19166020820180517bffffffffffffffffffffffffffffffffffffffffffffffffffffffff83818316178352505050506040518082805190602001908083835b602083106109935780518252602082019150602081019050602083039250610970565b6001836020036101000a0380198251168184511680821785525050505050509050019150506000604051808303816000865af19150503d80600081146109f5576040519150601f19603f3d011682016040523d82523d6000602084013e6109fa565b606091505b5091509150818015610a3a5750600081511480610a395750808060200190516020811015610a2757600080fd5b81019080805190602001909291905050505b5b610aac576040517f08c379a00000000000000000000000000000000000000000000000000000000081526004018080602001828103825260038152602001807f535446000000000000000000000000000000000000000000000000000000000081525060200191505060405180910390fd5b505050505050565b6000808473ffffffffffffffffffffffffffffffffffffffff1663095ea7b360e01b8585604051602401808373ffffffffffffffffffffffffffffffffffffffff16815260200182815260200192505050604051602081830303815290604052907bffffffffffffffffffffffffffffffffffffffffffffffffffffffff19166020820180517bffffffffffffffffffffffffffffffffffffffffffffffffffffffff83818316178352505050506040518082805190602001908083835b60208310610b955780518252602082019150602081019050602083039250610b72565b6001836020036101000a0380198251168184511680821785525050505050509050019150506000604051808303816000865af19150503d8060008114610bf7576040519150601f19603f3d011682016040523d82523d6000602084013e610bfc565b606091505b5091509150818015610c3c5750600081511480610c3b5750808060200190516020811015610c2957600080fd5b81019080805190602001909291905050505b5b610cae576040517f08c379a00000000000000000000000000000000000000000000000000000000081526004018080602001828103825260028152602001807f534100000000000000000000000000000000000000000000000000000000000081525060200191505060405180910390fd5b5050505050565b600081519050610cc4816111b3565b92915050565b600081359050610cd9816111ca565b92915050565b600081519050610cee816111ca565b92915050565b600060208284031215610d0657600080fd5b6000610d1484828501610cb5565b91505092915050565b600060208284031215610d2f57600080fd5b6000610d3d84828501610cca565b91505092915050565b600060208284031215610d5857600080fd5b6000610d6684828501610cdf565b91505092915050565b610d7881611159565b82525050565b610d8781611102565b82525050565b610d9681611102565b82525050565b610da581611114565b82525050565b610db48161116b565b82525050565b6000610dc76014836110f1565b91507f506c6561736520696e7365727420616d6f756e740000000000000000000000006000830152602082019050919050565b61010082016000820151610e116000850182610d7e565b506020820151610e246020850182610d7e565b506040820151610e376040850182610f4d565b506060820151610e4a6060850182610d7e565b506080820151610e5d6080850182610f6b565b5060a0820151610e7060a0850182610f6b565b5060c0820151610e8360c0850182610f6b565b5060e0820151610e9660e0850182610f3e565b50505050565b61010082016000820151610eb36000850182610d7e565b506020820151610ec66020850182610d7e565b506040820151610ed96040850182610f4d565b506060820151610eec6060850182610d7e565b506080820151610eff6080850182610f6b565b5060a0820151610f1260a0850182610f6b565b5060c0820151610f2560c0850182610f6b565b5060e0820151610f3860e0850182610f3e565b50505050565b610f4781611120565b82525050565b610f5681611140565b82525050565b610f6581611140565b82525050565b610f748161114f565b82525050565b610f838161114f565b82525050565b6000602082019050610f9e6000830184610d8d565b92915050565b6000604082019050610fb96000830185610d6f565b610fc66020830184610d8d565b9392505050565b6000606082019050610fe26000830186610d6f565b610fef6020830185610d8d565b610ffc6040830184610f7a565b949350505050565b60006040820190506110196000830185610d6f565b6110266020830184610f7a565b9392505050565b60006020820190506110426000830184610d9c565b92915050565b600060208201905061105d6000830184610dab565b92915050565b6000602082019050818103600083015261107c81610dba565b9050919050565b6000610100820190506110996000830184610dfa565b92915050565b6000610100820190506110b56000830184610e9c565b92915050565b60006020820190506110d06000830184610f5c565b92915050565b60006020820190506110eb6000830184610f7a565b92915050565b600082825260208201905092915050565b600061110d82611120565b9050919050565b60008115159050919050565b600073ffffffffffffffffffffffffffffffffffffffff82169050919050565b600062ffffff82169050919050565b6000819050919050565b60006111648261118f565b9050919050565b60006111768261117d565b9050919050565b600061118882611120565b9050919050565b600061119a826111a1565b9050919050565b60006111ac82611120565b9050919050565b6111bc81611114565b81146111c757600080fd5b50565b6111d38161114f565b81146111de57600080fd5b5056fea264697066735822122021c9777057722a0af446a64e576e1c37b8dfcf6b92311d0e0182d124de4bf3df64736f6c63430007060033",
  "linkReferences": {},
  "deployedLinkReferences": {}
}